:020000040000FA
:020000000528D1
:040002000034003492
:06000A008316031700300D
:1000100088000030890083160313003086008312A5
:100020000313003086008616061463206320061032
:1000300086145B208610532086145B208610532084
:1000400086145B20861006158612861563206320B1
:10005000861106165B200612532006165B20061238
:10006000532006165B200F28831203136430A00070
:10007000A00B38280800831203130530A100342098
:10008000A10B3F280800831203130230A2003B207B
:10009000A20B47280800831203136430A3004320F7
:1000A000A30B4F280800831203130530A4004B2034
:1000B000A40B57280800831203130730A5004B2018
:1000C000A50B5F280800831203130230A6005320FB
:0600D000A60B67280800E2
:02400E00F2209E
:02401000FF3E71
:00000001FF
