:020000040000FA
:020000000528D1
:040002000034003492
:06000A008316031700300D
:1000100088000030890083160313003088008312A3
:10002000031308122B2188120330880008161C21A4
:10003000081214210330880008161C2108121C2104
:100040000330880008161C21081214210230880091
:1000500008161C21081214210230880008161C21E1
:10006000081233210830880008161C210812332199
:100070000030880008161C2108123321083088003F
:1000800008161C21081233210030880008161C2194
:10009000081233210130880008161C210812332170
:1000A0000030880008161C21081233210630880011
:1000B00008161C21081233210830880008161C215C
:1000C000081233210630880008161C21081233213B
:1000D0000030880008161C21081233210F308800D8
:1000E00008161C21081233210430880008161C2130
:1000F000081233210030880008161C210812332111
:100100002030880008161C21081233212E30880068
:1001100008161C21081233212030880008161C21E3
:10012000081233212E30880008161C2108123321B2
:100130002030880008161C21081233212E30880038
:1001400008161C21081233212030880008161C21B3
:10015000081233212430880008161C21081233218C
:100160002130880008161C21081233212F30880006
:1001700008161C21081233212030880008161C2183
:10018000081233212430880008161C21081233215C
:100190002030880008161C210812332124308800E2
:1001A00008161C21081233212130880008161C2152
:1001B000081233212B30880008161C210812332125
:1001C0000030880008161C210812332101308800F5
:1001D00008161C21081233210830880008161C213B
:1001E000081233210030880008161C210812332120
:1001F0002030880008161C21081233212030880086
:1002000008161C2108123321042983120313A73076
:10021000A000A00B09290800831203130230A500D7
:100220000521A50B10290800831203130D30A4002B
:100230000C21A40B18290800831203136430A300B7
:10024000A30B20290800831203130330A2000C2102
:10025000A20B27290800831203130F30A1002321CA
:10026000A10B2F290800831203130230A600A60B4E
:040270001029080049
:02400E00F2209E
:02401000FF3E71
:00000001FF
