:020000040000FA
:020000000528D1
:040002000034003492
:020008003D2891
:06000A008316031700300D
:100010008800003089008316031300308800FF3009
:1000200087005520003005214830D0204F30D020A7
:100030004C30D0204130D0204030052183160313AE
:1000400013309900831603131811831603178711B1
:1000500083160313181283120313181698178316A6
:1000600003139816831203138B170B1783160313AE
:100070008C16831203138C123C28831203138C12E8
:10008000831203131A08A000200883120313990097
:100090008312031318162008D020831603138C161E
:1000A000831203138B170B17090083120313081213
:1000B0003F21831203138812831203130330880035
:1000C0000816302108122821831203130330081662
:1000D00030210812302183120313033088000816E0
:1000E00030210812282183120313023088000816D9
:1000F00030210812282183120313023088000816C9
:100100003021081228210E308800081630210812EC
:1001100028218312031300308800081630210812AA
:10012000282108308800081630210812282183125F
:1001300003130030880008163021081228210130EE
:10014000880008163021081228218312031300307A
:100150008800081630210812282106308800081669
:100160003021081228218312031308308800081652
:10017000302108122821003088000816302108128A
:10018000282183120313003088000816302108123A
:1001900028210C3088000816302108122821080078
:1001A000831203138816A700270E0F39203E8800FC
:1001B000081630210812282127080F39203E880010
:1001C0000816302108122821080083120313881210
:1001D00000308800081630210812282101308800DC
:1001E00008163021081228210800831203138812F0
:1001F00000308800081630210812282102308800BB
:1002000008163021081228210800831203138812CF
:10021000A700270E0F39083E880008163021081263
:10022000282127080F3988000816302108122821B4
:10023000080083120313A730A000A00B1D2908009B
:10024000831203130230A5001921A50B24290800ED
:10025000831203130D30A4002021A40B2C290800C5
:10026000831203136430A300A30B34290800831204
:1002700003130330A2002021A20B3B2908008312A4
:1002800003130F30A1003721A10B4329080083126B
:0C02900003130230A600A60B242908006E
:02400E00F2209E
:02401000FF3E71
:00000001FF
