:020000040000FA
:020000000528D1
:040002000034003492
:06000A008316031700300D
:100010008800003089008316031300308800FF3009
:10002000870083160313FF3086004A200030FA2031
:100030005230C5205330C5203230C5203330C52062
:100040003230C5204030FA20831603131330990054
:1000500083160313181183160317871183160313CE
:100060001812831203139817181683160313981681
:10007000831203138C1E3828831203131A08A0005E
:100080002008831203139900831203131816200803
:10009000C520382883120313081234218312031356
:1000A00088128312031303308800081625210812D2
:1000B0001D21831203130330081625210812252160
:1000C00083120313033088000816252108121D210E
:1000D00083120313023088000816252108121D21FF
:1000E00083120313023088000816252108121D21EF
:1000F0000E3088000816252108121D2183120313D3
:10010000003088000816252108121D2108308800BB
:100110000816252108121D218312031300308800C0
:100120000816252108121D210130880008162521F6
:1001300008121D21831203130030880008162521A0
:1001400008121D21063088000816252108121D21DD
:1001500083120313083088000816252108121D2178
:10016000003088000816252108121D218312031370
:10017000003088000816252108121D210C30880047
:100180000816252108121D21080083120313881662
:10019000A800280E0F39203E8800081625210812D5
:1001A0001D2128080F39203E880008162521081235
:1001B0001D210800831203138812003088000816DE
:1001C000252108121D21013088000816252108125A
:1001D0001D210800831203138812003088000816BE
:1001E000252108121D210230880008162521081239
:1001F0001D210800831203138812A800280E0F394E
:10020000083E88000816252108121D2128080F39EC
:1002100088000816252108121D21080083120313E7
:10022000A730A000A00B122908008312031302308C
:10023000A6000E21A60B19290800831203130D3006
:10024000A5001521A50B2129080083120313643092
:10025000A400A40B29290800831203130330A20071
:100260001521A20B30290800831203130F30A100BF
:100270002C21A10B38290800831203130230A70098
:10028000A70B19290800831203136430A3002C2143
:06029000A30B4729080042
:02400E00F2209E
:02401000FF3E71
:00000001FF
