:020000040000FA
:020000000528D1
:040002000034003492
:020008002828A6
:06000A008316031700300D
:1000100089000130880083160313FF30850000300B
:100020008600003088008316031300309F0083127F
:10003000031300309F001F14831203138B170B1739
:10004000831603130C17831203130C139F14272812
:10005000831203130C13831603131E088312031356
:10006000A100831203131E0883120313A0002008AB
:1000700083120313860083120313210883120313D0
:100080008800831603130C17831203138B170B17A7
:08009000831203139F14090001
:02400E00F2209E
:02401000FF3E71
:00000001FF
