:020000040000FA
:020000000528D1
:040002000034003492
:020008004A2884
:06000A008316031700300D
:10001000880000308900831603130030880083169F
:10002000031300308600831203130030860083160A
:100030000313003085008312031300308500831200
:1000400003132F30BF00831203136830C2008D20CA
:100050001D2148300821831603131330990083169D
:10006000031318118316031787118316031318122D
:100070008312031318169817831603139816831206
:1000800003138B170B17831603138C16831203139A
:100090008C124928831203138C12831203131A083B
:1000A000C000400808218312031340088312031381
:1000B000C100831203139900030183018312031308
:1000C0003F088312031341028312031303191D21F6
:1000D0008312031342088312031341028312031392
:1000E00003192D2183120313410883120313850181
:1000F00085008520831203131816831603138C16AC
:10010000831203130B178B17090086018312031345
:100110004008831203138600080083120313081299
:10012000772183120313881283120313033088008C
:100130000816682108126021831203130330081681
:1001400068210812682183120313033088000816FF
:1001500068210812602183120313023088000816F8
:1001600068210812602183120313023088000816E8
:100170006821081260210E308800081668210812D4
:1001800060218312031300308800081668210812CA
:100190006021083088000816682108126021831247
:1001A000031300308800081668210812602101300E
:1001B000880008166821081260218312031300309A
:1001C0008800081668210812602106308800081689
:1001D0006821081260218312031308308800081672
:1001E0006821081260210030880008166821081272
:1001F000602183120313003088000816682108125A
:1002000060210C308800081668210812602108005F
:10021000831203138816A800280E0F39203E880089
:10022000081668210812602128080F39203E88002E
:10023000081668210812602108008312031388122F
:1002400000308800081668210812602101308800FB
:10025000081668210812602108008312031388120F
:1002600000308800081668210812602102308800DA
:1002700008166821081260210800831203138812EF
:10028000A800280E0F39083E8800081668210812B9
:10029000602128080F39880008166821081260219B
:1002A000080083120313A730A000A00B55290800F3
:1002B000831203130230A5005121A50B5C2908000D
:1002C000831203130D30A4005821A40B64290800E5
:1002D000831203136430A300A30B6C29080083125C
:1002E00003130330A2005821A20B732908008312C4
:1002F00003130F30A1006F21A10B7B29080083128B
:1003000003130230A600A60B5C2908008312031316
:0C031000E830A7006F21A70B8A29080025
:02400E00F2209E
:02401000FF3E71
:00000001FF
