:020000040000FA
:020000000528D1
:040002000034003492
:06000A008316031701300C
:10001000880083160317003089008316031300300D
:10002000860083120313003086008316031300300A
:1000300087008312031300308700831603130030F8
:100040008800831203130030880083160313803066
:100050009F008312031300309F001F14BB204B210D
:1000600000306B21831203139F149F1832288316CC
:1000700003131E0883120313A300831203131E0825
:10008000A200831203132308831203138600831232
:10009000031322088312031387008001A401A50122
:1000A000831203130310831203132308803C83126B
:1000B0000313031824140310831203132208003CB3
:1000C00083120313031825148312031324088312C5
:1000D0000313250583120313A60083120313261CA2
:1000E00099208312031326187720AD213228201877
:1000F00008004B2154303621453036214D30362111
:1001000050303621453036215230362141303621AB
:100110005430362155303621523036214130362187
:10012000203036214F3036214B303621201421101B
:100130000800211808004B21543036214530362163
:100140004D3036215030362145303621523036215F
:100150004130362154303621553036215230362147
:10016000413036214E3036214F3036214B3036214A
:10017000201021140800831203130812A5218312F2
:100180000313881283120313033088000816962184
:1001900008128E21831203130330081696210812C9
:1001A0009621831203130330880008169621081243
:1001B0008E2183120313023088000816962108123C
:1001C0008E2183120313023088000816962108122C
:1001D0008E210E3088000816962108128E21831277
:1001E0000313003088000816962108128E2108306B
:1001F00088000816962108128E21831203130030FE
:1002000088000816962108128E21013088000816F1
:10021000962108128E2183120313003088000816DD
:10022000962108128E2106308800081696210812A1
:100230008E218312031308308800081696210812B5
:100240008E21003088000816962108128E21831214
:100250000313003088000816962108128E210C30F6
:1002600088000816962108128E21080083120313B5
:100270008816A800280E0F39203E880008169621FF
:1002800008128E2128080F39203E88000816962172
:1002900008128E2108008312031388120030880090
:1002A0000816962108128E21013088000816962122
:1002B00008128E2108008312031388120030880070
:1002C0000816962108128E21023088000816962101
:1002D00008128E210800831203138812A800280E2A
:1002E0000F39083E88000816962108128E2128082A
:1002F0000F3988000816962108128E2108008312F3
:100300000313A730A000A00B832908008312031356
:100310000230A5007F21A50B8A2908008312031350
:100320000D30A4008621A40B922908008312031328
:100330006430A300A30B9A2908008312031303302F
:10034000A2008621A20BA1290800831203130F30FB
:10035000A1009D21A10BA929080083120313E830F5
:10036000A7009D21A70BB1290800831203130230B7
:08037000A600A60B8A29080073
:02400E00F2209E
:02401000FF3E71
:00000001FF
