:020000040000FA
:020000000528D1
:040002000034003492
:0200080050287E
:06000A008316031700300D
:100010008900831603170030880083160313FF300E
:1000200086008316031300308700831203138701B1
:1000300083160313003088008312031300308600F8
:10004000831203130030880064008316031300300A
:10005000A100831203138101831203130B178B1763
:100060008B160B11831603130112811101158114D4
:1000700001148112831603139614831603132E3072
:10008000A00083160313FF30A20083160313220877
:10009000831203138800A52083160313A2034528A7
:1000A000831203130B118312031386186D28831612
:1000B0000313A00B64282E30A00083160313A10A9B
:1000C0002108831203138700831203138B160B106E
:1000D0008B150B178B170B110900831603130030B8
:1000E000A100831603130030A200642883120313B7
:1000F0006430A000A00B7A28080083120313053097
:10010000A1007620A10B812808008312031302307E
:10011000A2007D20A20B89280800831203136430FB
:10012000A3008520A30B9128080083120313053038
:10013000A5008D20A50B9928080083120313073012
:10014000A6008D20A60BA1280800831203130230FD
:10015000A7009520A70BA9280800831203130330DA
:0A016000A4008D20A40BB1280800B4
:02400E00F2209E
:02401000FF3E71
:00000001FF
