:020000040000FA
:020000000528D1
:040002000034003492
:06000A008316031700300D
:10001000890083160313FF308500003086008316A5
:100020000313003088008316031300308700831603
:100030000317013088008316031330309F008312AA
:10004000031300309F001F14831203137B30A7009B
:100050005220E220033002212730CD2083120313E7
:100060009F149F182E28831603131E088312031350
:10007000A100831203131E0883120313A00083122E
:1000800003130730A20003012208201925202308AA
:10009000A607A20B44288312031326088312031316
:1000A00086002E288312031307123C2183120313A8
:1000B0008712831203130330870007162D210712BE
:1000C000252183120313033007162D2107122D213A
:1000D000831203130330870007162D2107122521F1
:1000E000831203130230870007162D2107122521E2
:1000F000831203130230870007162D2107122521D2
:100100000E30870007162D210712252183120313B5
:100110000030870007162D2107122521083087009F
:1001200007162D21071225218312031300308700A3
:1001300007162D21071225210130870007162D21D2
:1001400007122521831203130030870007162D2183
:10015000071225210630870007162D2107122521B9
:10016000831203130830870007162D21071225215B
:100170000030870007162D21071225218312031353
:100180000030870007162D21071225210C3087002B
:1001900007162D2107122521080083120313871645
:1001A000A700270E0F39203E870007162D210712C2
:1001B000252127080F39203E870007162D21071219
:1001C00025210800831203138712003087000716C9
:1001D0002D21071225210130870007162D21071236
:1001E00025210800831203138712003087000716A9
:1001F0002D21071225210230870007162D21071215
:1002000025210800831203138712A700270E0F3938
:10021000083E870007162D210712252127080F39D0
:10022000870007162D2107122521080083120313CA
:10023000A730A000A00B1A29080083120313023074
:10024000A5001621A50B21290800831203130D30E8
:10025000A4001D21A40B2929080083120313643074
:10026000A300A30B31290800831203130330A2005B
:100270001D21A20B38290800831203130F30A1009F
:100280003421A10B40290800831203130230A60079
:10029000A60B2129080083120313A2010301831274
:1002A0000313200783120313A200A10B4F29080098
:1002B000831203130230A000831203130030A30043
:1002C000A30183120313A100210883120313A200C8
:1002D000A2032208831203130230A1008312031326
:1002E0002008A0004B21831203132208831203135A
:1002F000A000A20B72298312031322088312031396
:04030000A30008004E
:02400E00F2209E
:02401000FF3E71
:00000001FF
