:020000040000FA
:020000000528D1
:040002000034003492
:06000A008316031700300D
:1000100088000030890083160313003086008312A5
:10002000031300308600063083120313A0008312EE
:100030000313860183120313A00B20282620172800
:1000400020088312031386006120172883120313EC
:10005000FF30860061206120612006308312031387
:10006000A0000800831603136430A000A00B3628FC
:100070000800831603130530A1003220A10B3D2890
:100080000800831603130230A2003920A20B452872
:100090000800831603136430A3004120A30B4D28EE
:1000A0000800831603130530A5004920A50B552829
:1000B0000800831603130730A6004920A60B5D280D
:1000C0000800831603130230A7005120A70B6528F0
:1000D0000800831603130330A4004920A40B6D28E5
:0200E000080016
:02400E00F2209E
:02401000FF3E71
:00000001FF
